:020000040000FA
:100000000000810928170A10FE148200251C12180E
:100020001219B0190217C00519180017E0000009CD
:1000300002172610800B1518830984098509870982
:10004000880989098A098B09111834178300521409
:1000500043140114001412147A140014A0140F1481
:100060000B140001D00FD10ED20FCD0F3A00700F3C
:1000700000000000700E00000000000000003A00C8
:10008000700F0000000000000000000000000000F1
:10009000700E3A00D007D105801400125018521883
:1000A000401C5318371CD1074014001258185A1816
:1000B000401C5B18371CD10720140012601862180E
:1000C000401C6318371CD1071014001268186A18F6
:1000D000401C6B18371CD1070814001270187218D6
:1000E000401C7318371CD1070414001278187A18B2
:1000F000401C7B18371CD10702140012801882188C
:10010000401C8318371CD1070114001288188A1864
:1001100040188B1837183A00D307D0054A1CD2076D
:10012000D0054A1CD407D0054A183A00900F910E0A
:10013000920F8D0F281786008009C000440F00170A
:1001400085003A00A809A909AA09AB098C098D09FB
:10015000AC09EC072111200D0019E80A690B6A0BA4
:100160006B0BB00010141E000F140012BF18CD0747
:10017000C005CC076412B118C0070012B118B00056
:1001800010141E000F140112CD18CD07C005CC07A6
:100190006412BF18C0070012BF18CC07CE05CD07E8
:1001A000CF05CE07ED05CF07EE05ED076412DC188D
:1001B000EE070012DC18F101EC070012EC18ED0755
:1001C0002811EE071100200CEB1841176D060017DF
:1001D000EE06200DEC18F10107174E060017CF06AA
:1001E000200DFC18CF07C005CE070B11C00711006A
:1001F000200DFC18011768058C098D092C09A91818
:10020000E907EF05E807F0058009EF07300632003F
:1002100000083300FF11C0071100200D1019F10173
:10022000EF073A003200C0073200A500C0055002B7
:100230002719450E0C090D08CD07C005CC0764121F
:100240002719C007001227196417CC058D09330040
:10025000C00533003B00950996099709980999094B
:100260009A093C1DB00010141E000F140012321920
:10027000A21C1C1232193A0039001817DB05DB07E3
:10028000001243194C19D507D205D707D305D90752
:10029000D4058C1C5B093F1938003A007A17080610
:1002A000C005821710005F1ED50596097E17080647
:1002B000C005821710005F1ED7059809821708062F
:1002C000C005821710005F1ED9059A093C1D080958
:1002D000C80704126C1988098F193A009F1ED705A8
:1002E0009809A0170906C005821710005F1ED905DE
:1002F0009A09950996093C1DC907001280198A09B7
:10030000C907061285190117CA05CA0701128919FA
:100310004909CA0700128D1909098F193A009C0969
:100320009D09C507071132001B0000171100C00509
:1003300033006B10C009100082105F1E80095C063C
:10034000C007DD06600C80161B00200CAF19E617F5
:10035000E2050317E3054B1E1C091D0891193A001D
:10036000710F961C321C380085098B09B0004014AF
:10037000C2050617820A1300BA19C2070112C5196D
:10038000C3070012C5190117C305C2070012D2190D
:10039000C3070012CC19D21983090509C5070B122E
:1003A000D219850906174506200CEF198617050690
:1003B000C005821710005F1ED50596098E17050629
:1003C000C005821710005F1ED7059809961705060D
:1003D000C005821710005F1ED9059A093C1DC5078C
:1003E0000712F319F619C5070812F7194E1DC507AC
:1003F0000912FB196E1D5017E005E0070012011AE3
:10040000B619B00010141E000F140012401AC207D3
:100410000112401AA21CC60545120F1A8509C6070B
:100420004612141A0117C505C6074712191A0217F2
:10043000C505C60744121E1A0317C505C607401294
:10044000231A0417C505C6074312281A0517C50540
:10045000C60707122D1A0617C505C6070812321A55
:100460000717C505C6075A12371A0817C505C60764
:1004700018123C1A0917C505C6071C12401A2B1D75
:10048000E617E2050317E3054B1E6009FD193A0064
:10049000E108481A3A00000062096308E2076307AE
:1004A000000D4B1A3A0000006409650866086708E9
:1004B000E407650766076707000D531A3A008011C5
:1004C000200D641AE1003A00C0093200A200FF10BA
:1004D000C009E0003A00DC01960196016401450183
:1004E00046014701440140014301070108015A0147
:1004F000180152010001FD01D801EF01E40154018E
:1005000000010001FF010201EB010B010001FF01ED
:100510003701FD01FF01FF01EF010001750100013D
:10052000EB015401FF01F20100010001D801640157
:1005300000010201FF0100010B0100010001FF01A8
:0C054000FF01C8019B01640137010001AC
:00000001FF
